:020000040800F2
:100000000028002055100008E50F0008EB0F00083D
:10001000F10F0008F70F0008FD0F000800000000B6
:1000200000000000000000000000000003100008B5
:100030000F100008000000001B1000082710000827
:100040009D1000089D1000089D1000089D100008DC
:100050009D1000089D1000089D1000089D100008CC
:100060009D1000089D1000089D1000089D100008BC
:100070009D1000089D1000089D1000089D100008AC
:100080009D1000089D1000089D1000089D1000089C
:100090009D1000089D1000089D1000089D1000088C
:1000A0009D1000089D1000089D1000089D1000087C
:1000B000351000089D100008000000009D10000889
:1000C0009D10000800000000000000009D100008C6
:1000D000000000009D1000089D10000800000000B6
:1000E0009D1000089D1000089D10000800000000F1
:1000F0000000000000000000000000000000000000
:0C01000000000000000000005FF808F1A3
:10010C0010B5054C237833B9044B13B10448AFF345
:10011C0000800123237010BD24000020000000008B
:10012C00C826000808B5034B1BB103490348AFF3BD
:10013C00008008BD0000000028000020C826000830
:10014C0080B500AF00F010FC00F020FD022000F0A4
:10015C002BFD032000F028FD1D4B1B68072B13D033
:10016C00072B26DC052B02D0062B1AD021E0194BCD
:10017C00DB68184A23F49073D360154B07221A607E
:10018C00642000F053FE21E0124BDB68114A23F08F
:10019C009003D3600E4B06221A60642000F046FEDA
:1001AC0014E00B4B00221A604FF4FA7000F03EFE84
:1001BC000CE0084BDB68074A23F04803D360044B80
:1001CC0005221A60642000F031FE00BF00BF80BD24
:1001DC00700000200008014080B500AF0C4B1B687C
:1001EC00072B0AD0072B10DC052B02D0062B08D0CE
:1001FC000BE0012000F050FE08E0022000F04CFE65
:10020C0004E0032000F048FE00E000BF00BF80BD0A
:10021C007000002080B400AF0E4B1B68052B07D07C
:10022C000C4B1B68062B03D00A4B1B68072B0DD1FC
:10023C00084B00221A60084B1B68084A1360084BD5
:10024C001B68084A1360084B00221A6000BFBD46A9
:10025C0080BC7047700000200C00002004000020BF
:10026C0010000020080000207400002080B582B02F
:10027C0000AF00237B60B3E05E4A7B6852F823201A
:10028C005D497B6841F823205C4A7B6852F8232047
:10029C0058497B6841F823207B68022B21D07B686E
:1002AC00022B29DC7B68002B03D07B68012B0CD044
:1002BC0022E04FF40051524801F0D8F90346194698
:1002CC004E4A7B6842F8231017E04FF480414C48AB
:1002DC0001F0CCF903461946484A7B6842F82310D2
:1002EC000BE04FF40041464801F0C0F903461946B3
:1002FC00424A7B6842F8231000BF3F4A7B6852F8A1
:10030C0023203C497B6851F823309A4265D1394A05
:10031C007B6852F8232039497B6851F823309A4284
:10032C005BD1384A7B6852F8232034497B6851F8FA
:10033C0023309A4228D0314A7B6852F82320314925
:10034C007B6841F823202D4A7B6852F82330002B20
:10035C0043D17B68022B0FD07B68022B0FDC7B68B0
:10036C00002B03D07B68012B03D008E0FFF7E8FEDD
:10037C0006E0FFF731FF03E0FFF74CFF00E000BFA2
:10038C00214B64221A6028E01F4B1B68013B1E4A5C
:10039C0013601D4B1B68002B1FD1184A7B6852F849
:1003AC002330002B19D17B68022B0FD07B68022BDA
:1003BC000FDC7B68002B03D07B68012B03D008E09B
:1003CC00FFF7BEFE06E0FFF707FF03E0FFF722FF93
:1003DC0000E000BF0C4B32221A607B6801337B605B
:1003EC007B68022B7FF748AF00BF00BF0837BD46C4
:1003FC0080BD00BF4C0000204000002058000020B1
:10040C0000080140640000200000002080B500AF0F
:10041C00A34B1B68032B00F2FE8101A252F823F0C0
:10042C003D040008290500081D06000831070008D6
:10043C009C4B1B68012B40F0F08100F095FA9A4B15
:10044C00DB68994A23F08803D36000F09FFB974B3D
:10045C001B68002B29D1964B1B68964A82FB031212
:10046C009210DB17D31A184600F0A8FA904B1A68B2
:10047C00904B83FB02139910D317C91A0B469B00A0
:10048C000B445B00D11A084600F00CFB002000F076
:10049C008BFB012000F088FB844B01221A60844BFB
:1004AC001B68013B824A136033E0834B1B68814A13
:1004BC0082FB03129210DB17D31A184600F07EFA57
:1004CC007D4B1A687B4B83FB02139910D317C91A07
:1004DC000B469B000B445B00D11A084600F0E2FA75
:1004EC00022000F061FB032000F05EFB6F4B00224A
:1004FC001A60714B1B68013B6F4A13606E4B1B6893
:10050C00002B06D1664B01221A606C4B1B686A4AA1
:10051C0013604FF4FA7000F089FC7EE1614B1B68AC
:10052C00012B40F07C8100F01FFA5F4BDB685E4AC8
:10053C0023F48473D36000F029FB5C4B1B68002B05
:10054C0029D15B4B1B685B4A82FB03129210DB17B1
:10055C00D31A184600F032FA554B1A68554B83FBE8
:10056C0002139910D317C91A0B469B000B445B005E
:10057C00D11A084600F096FA002000F015FB012075
:10058C0000F012FB494B01221A60494B1B68013BDE
:10059C00474A136037E0484B1B68464A82FB0312FC
:1005AC009210DB17D31A184600F008FA424B1A685F
:1005BC00404B83FB02139910D317C91A0B469B00AF
:1005CC000B445B00D11A084600F06CFA022000F0D4
:1005DC00EBFA032000F0E8FA344B00221A60364B99
:1005EC001B68013B344A1360334B1B68002B0AD148
:1005FC00334B1B68304A1360324B1B682C4A136018
:10060C00274B02221A604FF4FA7000F00FFC06E13F
:10061C00244B1B68012B40F0048100F0A5F9224B00
:10062C00DB68214A23F05003D36000F0AFFA1F4B74
:10063C001B68002B48D11E4B1B681E4A82FB031201
:10064C009210DB17D31A184600F0B8F9184B1A6839
:10065C00184B83FB02139910D317C91A0B469B0036
:10066C000B445B00D11A084600F01CFA002000F085
:10067C009BFA012000F098FA0C4B01221A600C4BEB
:10068C001B68013B0A4A1360094B1B68002B44D1C1
:10069C00034B03221A60094B1B68054A13603CE0AC
:1006AC0070000020C40000200008014074000020ED
:1006BC000400002067666666080000201400002015
:1006CC000C00002010000020584B1B68584A82FB7D
:1006DC0003129210DB17D31A184600F06FF9534B24
:1006EC001A68534B83FB02139910D317C91A0B4684
:1006FC009B000B445B00D11A084600F0D3F9022092
:10070C0000F052FA032000F04FFA4A4B00221A6014
:10071C00464B1B68013B454A13604FF4FA7000F0DE
:10072C0085FB7EE0444B1B68012B7CD100F01CF94F
:10073C00424BDB68414A23F06003D36000F026FA99
:10074C003C4B1B68002B29D13D4B1B68384A82FB64
:10075C0003129210DB17D31A184600F02FF9384BFE
:10076C001A68334B83FB02139910D317C91A0B4623
:10077C009B000B445B00D11A084600F093F9002053
:10078C0000F012FA012000F00FFA2A4B01221A6035
:10079C002B4B1B68013B2A4A136037E0234B1B6829
:1007AC00234A82FB03129210DB17D31A184600F06F
:1007BC0005F91E4B1A681E4B83FB02139910D317B5
:1007CC00C91A0B469B000B445B00D11A084600F07B
:1007DC0069F9022000F0E8F9032000F0E5F9154B67
:1007EC0000221A60114B1B68013B104A13600F4B1F
:1007FC001B68002B0AD1134B1B680C4A1360124B5D
:10080C001B680F4A1360114B00221A604FF4FA70E8
:10081C0000F00CFB07E000BF06E000BF04E000BFE7
:10082C0002E000BF00E000BF00BF80BD0800002058
:10083C006766666674000020C40000200008014052
:10084C0004000020100000200C000020700000208C
:10085C0080B500AF3D4B1B68012B74D13C4B1B6822
:10086C00072B4AD0072B6ADC052B02D0062B22D093
:10087C0065E0384BDB68374A23F04803D360364BCE
:10088C001B68364A82FB03129210DB17D31A1846E8
:10089C0000F094F8304B1A68304B83FB021399101C
:1008AC00D317C91A0B469B000B445B00D11A0846A0
:1008BC0000F0F8F844E0274BDB68264A23F090035D
:1008CC00D360274B1B68254A82FB03129210DB175F
:1008DC00D31A184600F072F8214B1A681F4B83FB91
:1008EC0002139910D317C91A0B469B000B445B00DB
:1008FC00D11A084600F0D6F822E0164BDB68154AF0
:10090C0023F49073D360174B1B68144A82FB0312B9
:10091C009210DB17D31A184600F050F8114B1A68D6
:10092C000E4B83FB02139910D317C91A0B469B006D
:10093C000B445B00D11A084600F0B4F800E000BF8D
:10094C00642000F073FA00BF80BD00BFC40000201B
:10095C0070000020000801400C00002067666666ED
:10096C00100000201400002080B400AF044BDB68A2
:10097C00034A43F4FC73D36000BFBD4680BC704790
:10098C000008014080B400AF044BDB68034A43F01D
:10099C007F03D36000BFBD4680BC7047000C014094
:1009AC0080B400AF044BDB68034A43F47E53D3603E
:1009BC0000BFBD4680BC7047000C014080B582B0C2
:1009CC0000AF7860FFF7DEFF7B68092B5CD801A2D3
:1009DC0052F823F0090A0008170A0008250A000833
:1009EC00330A0008410A00084F0A00085D0A000893
:1009FC006B0A0008790A0008870A0008284BDB6894
:100A0C00274A23F07E03D36045E0254BDB68244A5C
:100A1C0023F03003D3603EE0214BDB68204A23F007
:100A2C005B03D36037E01E4BDB681D4A23F04F039A
:100A3C00D36030E01A4BDB68194A23F06603D360AD
:100A4C0029E0174BDB68164A23F06D03D36022E0D4
:100A5C00134BDB68124A23F07D03D3601BE0104B71
:100A6C00DB680F4A23F00703D36014E00C4BDB6800
:100A7C000B4A23F07F03D3600DE0094BDB68084A77
:100A8C0023F06703D36006E0054BDB68044A23F0D0
:100A9C007703D36000BF00BF0837BD4680BD00BFE1
:100AAC00000C014080B582B000AF7860FFF778FF92
:100ABC007B68092B5CD801A252F823F0F10A0008DC
:100ACC00FF0A00080D0B00081B0B0008290B00087F
:100ADC00370B0008450B0008530B0008610B00088E
:100AEC006F0B0008284BDB68274A23F4FC53D360B8
:100AFC0045E0254BDB68244A23F44073D3603EE089
:100B0C00214BDB68204A23F43653D36037E01E4B6D
:100B1C00DB681D4A23F41E53D36030E01A4BDB68AC
:100B2C00194A23F44C53D36029E0174BDB68164A5F
:100B3C0023F45A53D36022E0134BDB68124A23F49C
:100B4C007A53D3601BE0104BDB680F4A23F46073BD
:100B5C00D36014E00C4BDB680B4A23F47E53D36058
:100B6C000DE0094BDB68084A23F44E53D36006E0D2
:100B7C00054BDB68044A23F46E53D36000BF00BFFF
:100B8C000837BD4680BD00BF000C014080B400AFEB
:100B9C00044BDB68034A43F4F053D36000BFBD46FB
:100BAC0080BC70470008014080B485B000AF78600D
:100BBC007B680933FB60084BDB680121FA6801FA9A
:100BCC0002F2D2431146044A0B40D36000BF1437E3
:100BDC00BD4680BC704700BF0008014080B500AF27
:100BEC0000F058FA00F024F800F0AAF800F05CF8D5
:100BFC000A4801F0A3F94FF4FA7000F017F9FFF767
:100C0C00B3FE074B1B68074A1360074B1B68074A68
:100C1C001360FFF7FBFBFFF71BFEFAE778000020E1
:100C2C000C00002004000020100000200800002010
:100C3C0080B590B000AF07F11803282200211846A8
:100C4C0001F034FD3B1D00221A605A609A60DA6094
:100C5C001A610223BB610123BB621023FB620023D8
:100C6C007B6307F11803184600F030FD0346002B98
:100C7C0001D000F0D5F80F237B600023BB6000236C
:100C8C00FB6000233B6100237B613B1D0021184668
:100C9C0000F09EFF0346002B01D000F0C1F800BF0E
:100CAC004037BD4680BD000080B586B000AF07F16F
:100CBC00080300221A605A609A60DA603B460022F0
:100CCC001A605A601D4B4FF080421A601B4B4FF458
:100CDC00FA525A60194B00229A60184B0A22DA60B9
:100CEC00164B00221A61154B00229A61134801F031
:100CFC00D5F80346002B01D000F092F84FF4805346
:100D0C00BB6007F1080319460C4801F06BFA034667
:100D1C00002B01D000F084F800233B6000237B60A3
:100D2C003B461946054801F033FC0346002B01D025
:100D3C0000F076F800BF1837BD4680BD7800002063
:100D4C0080B586B000AF07F1080300221A605A6024
:100D5C009A60DA60294B9B69284A43F0040393613B
:100D6C00264B9B6903F004037B607B68234B9B69D8
:100D7C00224A43F008039361204B9B6903F008035C
:100D8C003B603B68002241F6F8711D4800F085FC81
:100D9C00002243F6FF711B4800F07FFC41F6F8730C
:100DAC00BB600123FB6000233B6102237B6107F1E5
:100DBC0008031946124800F0DDFA43F6FF73BB60D6
:100DCC000123FB6000233B6102237B6107F10803D5
:100DDC0019460C4800F0CEFA4FF46043BB60002378
:100DEC00FB6001233B6107F108031946044800F03E
:100DFC00C1FA00BF1837BD4680BD00BF00100240CD
:100E0C0000080140000C014080B582B000AF786052
:100E1C0000F028F8FFF72AFA00BF0837BD4680BD5E
:100E2C0080B400AF72B600BFFEE7000080B483B0A0
:100E3C0000AF78607B68084A82FB03129210DB17C4
:100E4C00D31A064A1360064B00221A6000BF0C37F7
:100E5C00BD4680BC704700BF67666666C000002058
:100E6C00C400002080B400AF094B1B68002B0BDDC5
:100E7C00074B1B68013B064A1360054B1B68002B94
:100E8C0002D1044B01221A6000BFBD4680BC7047E2
:100E9C00C0000020C400002080B483B000AF786094
:100EAC007B68032B31D07B68032B42DC7B68012BE6
:100EBC0003D07B68022B14D03BE0204B1B68013322
:100ECC001E4A13601D4B1A681D4B83FB02135911EC
:100EDC00D317CB1A642101FB03F3D31A174A1360FF
:100EEC0027E0184B1B680133164A1360154B1A6820
:100EFC00134B83FB02135911D317CB1A642101FB3B
:100F0C0003F3D31A0F4A136013E00F4B1B68013322
:100F1C000D4A13600C4B1A68094B83FB02135911D1
:100F2C00D317CB1A642101FB03F3D31A064A1360BF
:100F3C0000BF00BF0C37BD4680BC70470C000020C2
:100F4C001F85EB51140000201000002080B483B0EA
:100F5C0000AF0E4B9B690D4A43F0010393610B4BA1
:100F6C009B6903F001037B607B68084BDB69074AD4
:100F7C0043F08053D361054BDB6903F080533B6036
:100F8C003B6800BF0C37BD4680BC70470010024068
:100F9C0080B584B000AF78607B681B68B3F1804F7C
:100FAC0013D10C4BDB690B4A43F00103D361094BA2
:100FBC00DB6903F00103FB60FB68002200211C20AD
:100FCC0000F0A1F91C2000F0BAF900BF1037BD46A3
:100FDC0080BD00BF0010024080B400AFFEE780B4BB
:100FEC0000AFFEE780B400AFFEE780B400AFFEE7D1
:100FFC0080B400AFFEE780B400AF00BFBD4680BC3C
:10100C00704780B400AF00BFBD4680BC704780B451
:10101C0000AF00BFBD4680BC704780B500AF00F08C
:10102C007FF800BF80BD000080B500AF024800F023
:10103C00D1FF00BF80BD00BF7800002080B400AF9E
:10104C0000BFBD4680BC70470C480D490D4A0023BB
:10105C0002E0D458C4500433C4188C42F9D30A4A61
:10106C000A4C002301E013600432A242FBD3FFF7C9
:10107C00E5FF01F0F7FAFFF7B1FD70470000002023
:10108C00240000200827000824000020CC000020A9
:10109C00FEE7000080B500AF084B1B68074A43F021
:1010AC0010031360032000F023F90F2000F008F860
:1010BC00FFF74CFF0023184680BD00BF0020024004
:1010CC0080B582B000AF7860124B1A68124B1B7857
:1010DC0019464FF47A73B3FBF1F3B2FBF3F31846F2
:1010EC0000F03BF90346002B01D001230EE07B6896
:1010FC000F2B0AD8002279684FF0FF3000F003F96B
:10110C00064A7B681360002300E001231846083769
:10111C00BD4680BD18000020200000201C000020CF
:10112C0080B400AF054B1B781A46054B1B68134463
:10113C00034A136000BFBD4680BC704720000020EE
:10114C00C800002080B400AF024B1B681846BD4697
:10115C0080BC7047C800002080B485B000AF7860B8
:10116C007B6803F00703FB600C4BDB68BB60BA6861
:10117C004FF6FF031340BB60FB681A02BB681343B6
:10118C0043F0BF6343F40033BB60044ABB68D360D5
:10119C0000BF1437BD4680BC704700BF00ED00E0B7
:1011AC0080B400AF044BDB681B0A03F0070318463E
:1011BC00BD4680BC704700BF00ED00E080B483B03A
:1011CC0000AF0346FB7197F90730002B0BDBFB7963
:1011DC0003F01F02064997F907305B09012000FA5A
:1011EC0002F241F8232000BF0C37BD4680BC70478B
:1011FC0000E100E080B483B000AF03463960FB71BE
:10120C0097F90730002B0ADB3B68DAB20C4997F9E7
:10121C0007301201D2B20B4483F800230AE03B687A
:10122C00DAB20849FB7903F00F03043B1201D2B286
:10123C000B441A7600BF0C37BD4680BC704700BF0C
:10124C0000E100E000ED00E080B489B000AFF86090
:10125C00B9607A60FB6803F00703FB61FB69C3F1BB
:10126C000703042B28BF0423BB61FB690433062B43
:10127C0002D9FB69033B00E000237B614FF0FF3296
:10128C00BB6902FA03F3DA43BB681A407B699A40E4
:10129C004FF0FF317B6901FA03F3D9437B680B40B4
:1012AC00134318462437BD4680BC704780B582B0C6
:1012BC0000AF78607B68013BB3F1807F01D30123E1
:1012CC000FE00A4A7B68013B53600F214FF0FF305F
:1012DC00FFF790FF054B00229A60044B07221A601F
:1012EC00002318460837BD4680BD00BF10E000E063
:1012FC0080B582B000AF78607868FFF72DFF00BF33
:10130C000837BD4680BD80B586B000AF0346B960D6
:10131C007A60FB7300237B61FFF742FF78617A6888
:10132C00B9687869FFF790FF024697F90F301146BC
:10133C001846FFF75FFF00BF1837BD4680BD80B56C
:10134C0082B000AF0346FB7197F907301846FFF7E0
:10135C0035FF00BF0837BD4680BD80B582B000AFF9
:10136C0078607868FFF7A2FF034618460837BD4639
:10137C0080BD000080B48BB000AF78603960002372
:10138C007B6200233B6261E101227B6A02FA03F378
:10139C00FB613B681B68FA691340BB61BA69FB6966
:1013AC009A4240F050813B685B68974A93425ED00A
:1013BC00954A934275D8954A934258D0934A934292
:1013CC006FD8934A934252D0914A934269D8914A2A
:1013DC0093424CD08F4A934263D88F4A934246D063
:1013EC008D4A93425DD8122B2AD8122B59D801A2C0
:1013FC0052F823F07B1400085514000867140008F9
:10140C00A9140008AF140008AF140008AF140008AA
:10141C00AF140008AF140008AF140008AF14000894
:10142C00AF140008AF140008AF140008AF14000884
:10143C00AF140008AF1400085D1400087114000804
:10144C00764A934213D02CE03B68DB683B6229E080
:10145C003B68DB6804333B6224E03B68DB680833A1
:10146C003B621FE03B68DB680C333B621AE03B6875
:10147C009B68002B02D104233B6213E03B689B6802
:10148C00012B05D108233B627B68FA691A6109E0DC
:10149C0008233B627B68FA695A6103E000233B62D4
:1014AC0000E000BFBB69FF2B01D87B6801E07B68C3
:1014BC0004337B61BB69FF2B02D87B6A9B0002E083
:1014CC007B6A083B9B003B617B691A680F213B6977
:1014DC0001FA03F3DB431A40396A3B6901FA03F35F
:1014EC001A437B691A603B685B6803F08053002BDE
:1014FC0000F0A9804A4B9B69494A43F00103936170
:10150C00474B9B6903F00103BB60BB68454A7B6A90
:10151C009B08023352F82330FB607B6A03F0030311
:10152C009B000F2202FA03F3DB43FA681340FB60C3
:10153C007B683D4A93420DD07B683C4A934207D06E
:10154C007B683B4A934201D1022304E0032302E06F
:10155C00012300E000237A6A02F003029200934018
:10156C00FA681343FB602F497B6A9B080233FA68C5
:10157C0041F823203B685B6803F48033002B06D0D2
:10158C002C4B1A682B49BB6913430B6006E0294BA3
:10159C001A68BB69DB43274913400B603B685B68E7
:1015AC0003F40033002B06D0224B5A682149BB6947
:1015BC0013434B6006E01F4B5A68BB69DB431D4964
:1015CC0013404B603B685B6803F48013002B06D020
:1015DC00184B9A681749BB6913438B6006E0154B8F
:1015EC009A68BB69DB43134913408B603B685B68AB
:1015FC0003F40013002B1FD00E4BDA680D49BB69A6
:10160C001343CB601FE000BF00003210000031100C
:10161C000000221000002110000012100000111018
:10162C00001002400000014000080140000C014085
:10163C0000100140000401400B4BDA68BB69DB432E
:10164C0009491340CB607B6A01337B623B681A68A3
:10165C007B6A22FA03F3002B7FF496AE00BF00BF27
:10166C002C37BD4680BC70470004014080B485B067
:10167C0000AF78600B467B807B689A687B88134050
:10168C00002B02D00123FB7301E00023FB73FB7BD7
:10169C0018461437BD4680BC704780B483B000AF89
:1016AC0078600B467B8013467B707B78002B03D0D5
:1016BC007A887B681A6103E07B881A047B681A615C
:1016CC0000BF0C37BD4680BC7047000080B586B0AB
:1016DC0000AF78607B68002B01D1012372E27B683C
:1016EC001B6803F00103002B00F08780924B5B68B2
:1016FC0003F00C03042B0CD08F4B5B6803F00C0332
:10170C00082B12D18C4B5B6803F48033B3F5803F0C
:10171C000BD1894B1B6803F40033002B6CD07B6816
:10172C005B68002B68D101234CE27B685B68B3F5E6
:10173C00803F06D1804B1B687F4A43F48033136093
:10174C002EE07B685B68002B0CD17B4B1B687A4AC4
:10175C0023F480331360784B1B68774A23F480237F
:10176C0013601DE07B685B68B3F5A02F0CD1724B46
:10177C001B68714A43F4802313606F4B1B686E4ADD
:10178C0043F4803313600BE06B4B1B686A4A23F401
:10179C0080331360684B1B68674A23F48023136003
:1017AC007B685B68002B13D0FFF7CCFC386108E03A
:1017BC00FFF7C8FC02463B69D31A642B01D90323FB
:1017CC0000E25D4B1B6803F40033002BF0D014E0F7
:1017DC00FFF7B8FC386108E0FFF7B4FC02463B6940
:1017EC00D31A642B01D90323ECE1534B1B6803F48C
:1017FC000033002BF0D100E000BF7B681B6803F0C6
:10180C000203002B63D04C4B5B6803F00C03002BE2
:10181C000BD0494B5B6803F00C03082B1CD1464BD7
:10182C005B6803F48033002B16D1434B1B6803F029
:10183C000203002B05D07B681B69012B01D001230F
:10184C00C0E13D4B1B6823F0F8027B685B69DB0051
:10185C00394913430B603AE07B681B69002B20D09D
:10186C00364B01221A60FFF76DFC386108E0FFF778
:10187C0069FC02463B69D31A022B01D90323A1E16F
:10188C002D4B1B6803F00203002BF0D02A4B1B6876
:10189C0023F0F8027B685B69DB00274913430B607C
:1018AC0015E0264B00221A60FFF74CFC386108E06B
:1018BC00FFF748FC02463B69D31A022B01D90323DC
:1018CC0080E11D4B1B6803F00203002BF0D17B68F9
:1018DC001B6803F00803002B3AD07B689B69002B34
:1018EC0019D0174B01221A60FFF72CFC386108E065
:1018FC00FFF728FC02463B69D31A022B01D90323BC
:10190C0060E10D4B5B6A03F00203002BF0D0012069
:10191C0000F0A6FA1CE00A4B00221A60FFF712FC3A
:10192C0038610FE0FFF70EFC02463B69D31A022B1D
:10193C0008D9032346E100BF0010024000004242D8
:10194C0080044242924B5B6A03F00203002BE9D104
:10195C007B681B6803F00403002B00F0A6800023B7
:10196C00FB758B4BDB6903F08053002B0DD1884B3F
:10197C00DB69874A43F08053D361854BDB6903F005
:10198C008053BB60BB680123FB75824B1B6803F45F
:10199C008073002B18D17F4B1B687E4A43F48073F5
:1019AC001360FFF7CFFB386108E0FFF7CBFB024673
:1019BC003B69D31A642B01D9032303E1754B1B68D4
:1019CC0003F48073002BF0D07B68DB68012B06D10D
:1019DC006F4B1B6A6E4A43F0010313622DE07B6868
:1019EC00DB68002B0CD16A4B1B6A694A23F001039C
:1019FC001362674B1B6A664A23F0040313621CE0F4
:101A0C007B68DB68052B0CD1614B1B6A604A43F089
:101A1C00040313625E4B1B6A5D4A43F001031362BD
:101A2C000BE05B4B1B6A5A4A23F001031362584BC1
:101A3C001B6A574A23F0040313627B68DB68002B94
:101A4C0015D0FFF77FFB38610AE0FFF77BFB0246FE
:101A5C003B69D31A41F28832934201D90323B1E096
:101A6C004B4B1B6A03F00203002BEED014E0FFF784
:101A7C0069FB38610AE0FFF765FB02463B69D31A44
:101A8C0041F28832934201D903239BE0404B1B6AFD
:101A9C0003F00203002BEED1FB7D012B05D13C4B57
:101AAC00DB693B4A23F08053D3617B68DB69002BF5
:101ABC0000F08780364B5B6803F00C03082B61D079
:101ACC007B68DB69022B46D1334B00221A60FFF78F
:101ADC0039FB386108E0FFF735FB02463B69D31A46
:101AEC00022B01D903236DE0294B1B6803F0007313
:101AFC00002BF0D17B681B6AB3F5803F08D1244BD7
:101B0C005B6823F400327B689B68214913434B606C
:101B1C001F4B5B6823F474127B68196A7B685B6AE1
:101B2C000B431B4913434B601B4B01221A60FFF7FD
:101B3C0009FB386108E0FFF705FB02463B69D31A45
:101B4C00022B01D903233DE0114B1B6803F00073FA
:101B5C00002BF0D035E0104B00221A60FFF7F2FAA0
:101B6C00386108E0FFF7EEFA02463B69D31A022B04
:101B7C0001D9032326E0064B1B6803F00073002BEE
:101B8C00F0D11EE07B68DB69012B07D1012319E042
:101B9C000010024000700040600042420B4B5B683A
:101BAC00FB60FB6803F480327B681B6A9A4206D1A7
:101BBC00FB6803F470127B685B6A9A4201D00123C4
:101BCC0000E0002318461837BD4680BD00100240C7
:101BDC0080B584B000AF786039607B68002B01D190
:101BEC000123D0E06A4B1B6803F007033A689A4262
:101BFC0010D9674B1B6823F0070265493B681343F8
:101C0C000B60634B1B6803F007033A689A4201D0E0
:101C1C000123B8E07B681B6803F00203002B20D083
:101C2C007B681B6803F00403002B05D0594B5B68E1
:101C3C00584A43F4E06353607B681B6803F0080365
:101C4C00002B05D0534B5B68524A43F460535360EE
:101C5C00504B5B6823F0F0027B689B684D49134343
:101C6C004B607B681B6803F00103002B40D07B6842
:101C7C005B68012B07D1474B1B6803F40033002B27
:101C8C0015D101237FE07B685B68022B07D1414BA8
:101C9C001B6803F00073002B09D1012373E03D4B4B
:101CAC001B6803F00203002B01D101236BE0394BBD
:101CBC005B6823F003027B685B68364913434B6017
:101CCC00FFF740FAF8600AE0FFF73CFA0246FB68BF
:101CDC00D31A41F28832934201D9032353E02D4B9E
:101CEC005B6803F00C027B685B689B009A42EBD14B
:101CFC00274B1B6803F007033A689A4210D2244B17
:101D0C001B6823F0070222493B6813430B60204BEE
:101D1C001B6803F007033A689A4201D0012332E0B2
:101D2C007B681B6803F00403002B08D0194B5B681D
:101D3C0023F4E0627B68DB68164913434B607B68D5
:101D4C001B6803F00803002B09D0124B5B6823F4CB
:101D5C0060527B681B69DB000E4913434B6000F03B
:101D6C0021F802460B4B5B681B0903F00F030A4971
:101D7C00CB5C22FA03F3094A1360094B1B68184623
:101D8C00FFF79EF9002318461037BD4680BD00BFF3
:101D9C000020024000100240F0260008180000202D
:101DAC001C00002090B48AB000AF294B3C1D0FCB17
:101DBC0084E80F0040F201233B800023FB610023E9
:101DCC00BB6100237B6200237B6100233B62214BC0
:101DDC005B68FB61FB6903F00C03042B02D0082B3E
:101DEC0003D02BE01C4B3B622BE0FB699B0C03F0FC
:101DFC000F0328333B4413F8243C7B61FB6903F449
:101E0C008033002B12D0134B5B685B0C03F0010387
:101E1C0028333B4413F8283CBB617B690E4A03FB17
:101E2C0002F2BB69B2FBF3F37B6204E07B690B4A01
:101E3C0002FB03F37B627B6A3B6202E0064B3B6274
:101E4C0000BF3B6A18462837BD4690BC704700BFA0
:101E5C00E02600080010024000127A0000093D0044
:101E6C0080B485B000AF78600A4B1B680A4AA2FBAD
:101E7C0003235B0A7A6802FB03F3FB6000BFFB6879
:101E8C005A1EFA60002BF9D100BF00BF1437BD46B3
:101E9C0080BC704718000020D34D621080B582B012
:101EAC0000AF78607B68002B01D1012341E07B6897
:101EBC0093F83D30DBB2002B06D17B68002283F80F
:101ECC003C207868FFF764F87B68022283F83D2099
:101EDC007B681A687B6804331946104600F06AFA6E
:101EEC007B68012283F846207B68012283F83E2020
:101EFC007B68012283F83F207B68012283F8402015
:101F0C007B68012283F841207B68012283F8422000
:101F1C007B68012283F843207B68012283F84420EC
:101F2C007B68012283F845207B68012283F83D20E1
:101F3C00002318460837BD4680BD000080B485B02C
:101F4C0000AF78607B6893F83D30DBB2012B01D099
:101F5C00012335E07B68022283F83D207B681B68F7
:101F6C00DA687B681B6842F00102DA607B681B68E8
:101F7C00164A934209D07B681B68B3F1804F04D09A
:101F8C007B681B68124A934211D17B681B689B6863
:101F9C0003F00703FB60FB68062B10D07B681B6803
:101FAC001A687B681B6842F001021A6007E07B68C4
:101FBC001B681A687B681B6842F001021A600023D8
:101FCC0018461437BD4680BC704700BF002C01403A
:101FDC000004004080B582B000AF78607B681B685D
:101FEC001B6903F00203022B22D17B681B68DB68A0
:101FFC0003F00203022B1BD17B681B686FF00202FB
:10200C001A617B6801221A777B681B689B6903F055
:10201C000303002B03D0786800F0B1F905E0786871
:10202C0000F0A4F9786800F0B3F97B6800221A7705
:10203C007B681B681B6903F00403042B22D17B68AB
:10204C001B68DB6803F00403042B1BD17B681B6843
:10205C006FF004021A617B6802221A777B681B6896
:10206C009B6903F44073002B03D0786800F087F968
:10207C0005E0786800F07AF9786800F089F97B68F7
:10208C0000221A777B681B681B6903F00803082B76
:10209C0022D17B681B68DB6803F00803082B1BD17B
:1020AC007B681B686FF008021A617B6804221A7740
:1020BC007B681B68DB6903F00303002B03D0786893
:1020CC0000F05DF905E0786800F050F9786800F0F0
:1020DC005FF97B6800221A777B681B681B6903F029
:1020EC001003102B22D17B681B68DB6803F01003F4
:1020FC00102B1BD17B681B686FF010021A617B6878
:10210C0008221A777B681B68DB6903F44073002B89
:10211C0003D0786800F033F905E0786800F026F910
:10212C00786800F035F97B6800221A777B681B68A9
:10213C001B6903F00103012B0ED17B681B68DB6864
:10214C0003F00103012B07D17B681B686FF00102C0
:10215C001A617868FEF758FE7B681B681B6903F0F0
:10216C008003802B0ED17B681B68DB6803F0800337
:10217C00802B07D17B681B686FF080021A6178682E
:10218C0000F067FA7B681B681B6903F04003402B67
:10219C000ED17B681B68DB6803F04003402B07D132
:1021AC007B681B686FF040021A61786800F0F9F8E0
:1021BC007B681B681B6903F02003202B0ED17B6806
:1021CC001B68DB6803F02003202B07D17B681B689E
:1021DC006FF020021A61786800F032FA00BF0837FD
:1021EC00BD4680BD80B584B000AF786039607B6837
:1021FC0093F83C30012B01D10223B3E07B68012220
:10220C0083F83C207B68022283F83D207B681B68A6
:10221C009B68FB60FB6823F07703FB60FB6823F48F
:10222C007F43FB607B681B68FA689A603B681B689D
:10223C00B3F5005F3ED0B3F5005F00F28780B3F5D5
:10224C00805F00F08580B3F5805F7FD8702B1AD04B
:10225C00702B7BD8602B50D0602B77D8502B3CD078
:10226C00502B73D8402B58D0402B6FD8302B64D0C8
:10227C00302B6BD8202B60D0202B67D8002B5CD058
:10228C00102B5AD062E07B6818683B6899683B68F1
:10229C005A683B68DB6800F05CF97B681B689B68DC
:1022AC00FB60FB6843F07703FB607B681B68FA6894
:1022BC009A604EE07B6818683B6899683B685A687E
:1022CC003B68DB6800F045F97B681B689A687B68A3
:1022DC001B6842F480429A603BE07B6818683B685C
:1022EC0059683B68DB681A4600F0BCF87B681B68D1
:1022FC005021184600F013F92BE07B6818683B68F6
:10230C0059683B68DB681A4600F0DAF87B681B6892
:10231C006021184600F003F91BE07B6818683B68E5
:10232C0059683B68DB681A4600F09CF87B681B68B0
:10233C004021184600F0F3F80BE07B681A683B6804
:10234C001B681946104600F0EAF802E000BF00E0F6
:10235C0000BF7B68012283F83D207B68002283F854
:10236C003C20002318461037BD4680BD80B483B096
:10237C0000AF786000BF0C37BD4680BC704780B49E
:10238C0083B000AF786000BF0C37BD4680BC70478F
:10239C0080B483B000AF786000BF0C37BD4680BC02
:1023AC00704780B483B000AF786000BF0C37BD4677
:1023BC0080BC704780B485B000AF786039607B68B2
:1023CC001B68FB607B68254A934207D07B68B3F19E
:1023DC00804F03D07B68224A934208D1FB6823F0DC
:1023EC007003FB603B685B68FA681343FB607B68B7
:1023FC001A4A934207D07B68B3F1804F03D07B68B5
:10240C00174A934208D1FB6823F44073FB603B6886
:10241C00DB68FA681343FB60FB6823F080023B68BF
:10242C005B691343FB607B68FA681A603B689A68C7
:10243C007B68DA623B681A687B689A627B68074A39
:10244C00934203D13B681A697B681A637B6801224B
:10245C005A6100BF1437BD4680BC7047002C014048
:10246C000004004080B487B000AFF860B9607A60B7
:10247C00FB681B6A7B61FB681B6A23F00102FB682B
:10248C001A62FB689B693B613B6923F0F0033B617B
:10249C007B681B013A6913433B617B6923F00A0398
:1024AC007B617A69BB6813437B61FB683A699A610B
:1024BC00FB687A691A6200BF1C37BD4680BC704746
:1024CC0080B487B000AFF860B9607A60FB681B6AB3
:1024DC0023F01002FB681A62FB689B697B61FB6846
:1024EC001B6A3B617B6923F470437B617B681B0334
:1024FC007A6913437B613B6923F0A0033B61BB68A2
:10250C001B013A6913433B61FB687A699A61FB686A
:10251C003A691A6200BF1C37BD4680BC704780B454
:10252C0085B000AF786039607B689B68FB60FB68A6
:10253C0023F07003FB603A68FB68134343F0070316
:10254C00FB607B68FA689A6000BF1437BD4680BC9C
:10255C00704780B487B000AFF860B9607A603B60B8
:10256C00FB689B687B617B6923F47F437B613B68E1
:10257C001A027B681A43BB6813437A6913437B6165
:10258C00FB687A699A6000BF1C37BD4680BC7047F7
:10259C0080B485B000AF786039607B6893F83C30CC
:1025AC00012B01D1022341E07B68012283F83C20FE
:1025BC007B68022283F83D207B681B685B68FB60AC
:1025CC007B681B689B68BB60FB6823F07003FB6037
:1025DC003B681B68FA681343FB607B681B68FA68EE
:1025EC005A607B681B68144A934209D07B681B684D
:1025FC00B3F1804F04D07B681B68104A93420CD116
:10260C00BB6823F08003BB603B685B68BA6813430C
:10261C00BB607B681B68BA689A607B68012283F890
:10262C003D207B68002283F83C2000231846143799
:10263C00BD4680BC704700BF002C01400004004028
:10264C0080B483B000AF786000BF0C37BD4680BC4F
:10265C00704780B483B000AF786000BF0C37BD46C4
:10266C0080BC704770B500260C4D0D4C641BA4103B
:10267C00A64209D100F022F800260A4D0A4C641B30
:10268C00A410A64205D170BD55F8043B98470136FD
:10269C00EEE755F8043B98470136F2E700270008AF
:1026AC0000270008002700080427000803460244FE
:1026BC00934200D1704703F8011BF9E7F8B500BF4E
:1026CC00F8BC08BC9E467047F8B500BFF8BC08BC07
:0426DC009E4670475F
:1026E00002030405060708090A0B0C0D0E0F101053
:1026F00000000000000000000102030406070809B2
:04270000310100089B
:042704000D010008BB
:10270800640000000F0000000C0000000F00000033
:102718000C000000030000000024F400100000007A
:0427280001000000AC
:04000005080010558A
:00000001FF
